S01B00006275696C642F72656C656173652F7A69676265652E73333714
S21400400008100020397F0000CDC60000BF0A03005C
S214004010BF0A0300D5C60000DDC60000BF0A0300C5
S214004020BF0A0300BF0A0300BF0A0300BF0A03005B
S214004030E1C60000144E0400BF0A0300BF0A0300D6
S214004040BF0A0300BF0A0300BF0A0300517A00003C
S214004050BF0A0300BF0A0300BF0A0300BF0A03002B
S214004060BF0A0300BF0A0300E1CB0000BF0A03003B
S214004070BF0A0300BF0A0300BF0A0300BF0A03000B
S214004080BF0A0300BF0A0300BF0A0300BF0A0300FB
S214004090BF0A0300BF0A0300BF0A0300BF0A0300EB
S2140040A0BF0A030001830000E5820000BF0A030088
S2140040B0BF0A0300BF0A0300BF0A0300C91F0200AD
S2140040C0D1650300CD6503002D170200E7650300E8
S2140040D0D5650300891F0200D9650300BD030200F1
S2140040E009200200BF0A0300BF0A0300BF0A03003C
S2140040F0BF0A0300BF0A0300BF0A0300BF0A03008B
S214004100BF0A0300BF0A0300BF0A0300BF0A03007A
S214004110BF0A0300BF0A0300BF0A0300BF0A03006A
S214004120BF0A0300BF0A0300BF0A0300BF0A03005A
S208004130BF0A0300BA
S214004134F0B5114A114C124E00F00105E3695F0711
S21400414413D40DB9334213D103EA00078F4207D1C3
S2140041540B4A1A40002A14BF6FF001000020F0BD7D
S214004164013AEBD16FF00200F9E74FF0FF30F6E7C3
S2140041746FF00100F3E700BF80969800000003503C
S214004184020001000B4B70B5D96911F480310DD1D2
S21400419401244FF48072084E084DF46020462C64C7
S2140041A41A61FFF7C5FF3464EC6070BD6FF0010060
S2140041B4FBE700BF0000035000100350002003502C
S2140041C438B541F6713301220C4C0021E569E363EE
S2140041D40B4B05F48035DA600223606121202361ED
S2140041E4FFF7A6FF10B92120FFF7A2FF0122054B17
S2140041F4DA600DB10023E36338BD00BF000003504E
S214004204001003500020035070B5134C6061E3693E
S2140042145B071ED40E4656F8043B8D18A361AE42C7
S2140042240BD10423002121202361FFF781FF58B915
S214004234BDE870402120FFF77BBF08210846FFF742
S21400424477FF10B10423236170BD56F8043BA361C5
S214004254E5E74FF0FF30F7E7000003502DE9F84399
S214004264154641F67132164B8946DF69DA63012238
S214004274064603F58053DFF8508007F48037DA608B
S21400428455B9284601220F4BDA601FB10022A3F568
S2140042940053DA63BDE8F88306F5005404EA08041C
S2140042A4A41BAC4228BF2C46494622463046FFF79C
S2140042B4ABFF0028E6D12644A1442D1BE0E700BF4F
S2100042C4000003500020035000E0FFFF45
S2140042D02DE9F04F4FF0FD0BC9B09A460DF11B09C2
S2140042E09DF8503108AFCDF80C90CDF808B0019786
S2140042F0059303890446009383790E4690464188C9
S2140043008288407812F0ACFB054650B10090A38836
S214004310002062883A4912F0E7FE284649B0BDE818
S214004320F08F99F800002FF0A5FC38B12846A38836
S2140043306288344912F0D8FE8D25EEE75A46394693
S21400434099F800002FF03EFC8346002851D0529B7F
S2140043501BB1BDF84C3198424BD8002399F8009019
S2140043600793A9F14102012A5FFA8BF123D8384658
S2140043700139254ADFF898C05FFA81FE734513DBE2
S214004380059B04210792C3B907AF18221F489FED6B
S2140043901A7B02FB060420460A460830394684ED9E
S2140043A0027B17F0C9FB11E010F8011F01335140E2
S2140043B00CFB01F2E2E7059B33B123464A4638463A
S2140043C0009610F0CFFAA8E70829DED9B8F1000F5A
S2140043D001D088F80090BAF1000F01D0AAF800B01A
S2140043E0529B002B99D05A46184608A917F0A4FBF2
S2140043F093E7012591E700BF0000000000000000E1
S214004400E8F603001DF70300C59D1C818010002000
S21400441093010001000000002DE9F04F93B0CDE9B4
S2140044200A32DDE91C530E9353EC102BCDE908013C
S214004430104619468DED060B1E9E16F007FE80B13F
S214004440DDE906014FF0FF32C54B16F027FE40B9F6
S214004450DDE906014FF0FF326FF4801316F000FE20
S21400446070B1DDE908019DED060B0E9B1E96CDE9A9
S2140044701C53DDE90A3213B0BDE8F04F00F088B9EE
S2140044800022DDE90601002316F0EAFD002800F010
S2140044903381DDE906A303F1004BCBF30A5016F493
S2140044A08063A0F2FF3008BF06250F9316F0FCFAD3
S2140044B09BA3D3E9002316F061FB9BA3D3E900235B
S2140044C016F0A6F9CBF31304894644F07F518046D4
S2140044D00022A44B504641F4401116F097F994A3DD
S2140044E0D3E9002316F04AFB02460B4640464946EF
S2140044F016F08EF916F0DCFD044616F0D5FA8EA3FB
S214004500D3E900238046894616F038FB0022964BF6
S21400451016F07EF916F0CCFD89A3D3E900230746F2
S2140045204946404616F02AFB80463846894616F02D
S214004530BBFA85A3D3E9002316F020FB02460B4600
S2140045404046494616F062F902460B46CDE90C2372
S21400455016F014FBDDE90C23804689461046194602
S21400456016F056F90022CDE91001804B4046494628
S21400457016F02EFC00227E4B16F04AF902460B4639
S2140045804046494616F024FC00227A4B16F040F9C5
S21400459002460B464046494616F01AFCDDE90C2357
S2140045A08046894600204FF0804116F02FF90246DB
S2140045B00B464046494616F02BF902460B46DDE907
S2140045C0100116F005FC07F2FF3700226A4B16F0C2
S2140045D01FF900223B0516F0D1FA52465B4680468C
S2140045E0894616F05BFD002840F08980CDE90C89ED
S2140045F004F16303C62B8CBF0527042731051BD5A2
S21400460053A3D3E900235046594616F03DFD002833
S2140046107FD051A3D3E900235046594616F020FD1B
S214004620002876D00027A542C6BF2C1B04F1FF3514
S21400463000253C4646F480660E9B9F422CBF4FF0FA
S2140046400008A3EB070816F0020903D0002F18BFD6
S2140046504FF000083CB1DDE90C235046594616F0F1
S214004660B7FB82468B46DDE906010022002316F0E2
S214004670F7FC10B10BF100439B46DDE9080126F478
S2140046800063CDE90183DDE90A324BEC10AB0095FF
S21400469000F07EF802465FB3DDE9091316F0200F3E
S2140046A000F10105089E0CBF65204520B047DDE9F6
S2140046B008010523002205930A23002CCDE90232C7
S2140046C007F1FF374FEAD473B8BF64422A46019316
S2140046D004970A9B009431F0E9F80246B9F1000FFE
S2140046E006D00B9BC41A0B9B1A190E9BA34245D8E7
S2140046F0104613B0BDE8F08FDDE906ABCDE600222C
S214004700404649461A4B16F063FB013CCDE90C01C6
S2140047106EE7002D90D00F9B002B8DD0013D8BE7D0
S214004720FB799F501344D33FB3C8608B288AC63F9B
S21400473061436F63A787D23F71A379094F930A40FD
S2140047401655B5BBB16B0240EF39FAFE422EE63F76
S2140047502D431CEBE2361A3F0000000080842E41F9
S214004760FFFFEF7F0000F83F0000E03F00002C4016
S21400477000002440000018400000F03F2020DDE943
S2140047800913089DA8470134ADE700BF00000000EC
S2140047902DE9F04F5BEC10AB97B0CDE90501DDE9F4
S2140047A02058CDE90723504652465B465946229F7D
S2140047B016F04CFC70B90323CDE902870193AA4B8F
S2140047C00093DDE90501DDE9072330F0A1FF17B00E
S2140047D0BDE8F08F4FF0FF326FF480135046594615
S2140047E016F03EFC28B10423CDE9028701939F4BC7
S2140047F0E6E74FF0FF32504659469D4B16F04EFC0A
S21400480068B19C4A07F00403002B08BF03229A4BAA
S2140048101CBF13460422CDE902870192D0E750461A
S2140048208DA3D3E90023594616F038FC38B98CA37B
S214004830D3E900235046594616F012FC68B1DDE96C
S2140048400723DDE905014BEC10ABCDE92187209568
S21400485017B0BDE8F04FFFF7DFBD0022002350463B
S214004860594616F0FDFB002800F091805B46524644
S2140048700020002115F0CAFF012382468B460993CB
S21400488017F4806400F08580092D40F285800024AE
S21400489030210EABA5F109020134202C03F8011BD0
S2140048A0A5EB040901D09442F6D15946504616F0BD
S2140048B0FFFB724B054603EBC90393ED007B8DEDC2
S2140048C00A7B16F0F1F802460B465046594615F09C
S2140048D09DFFDDE90A2316F051F902460B46CDE9A5
S2140048E00C2316F00DFC064616F0CEF802460B46D4
S2140048F0DDE90C0115F08AFF02460B46CDE90C23D4
S21400490000225F4B16F0CAFB002848D0013630461E
S21400491016F0BAF802460B46DDE90A0116F0AAFBC5
S21400492008B100260135B9F1000F45D1284616F02A
S214004930BBF802460B465046594615F067FF002264
S2140049404F4B16F08DFB10B9E90700D501350A214B
S2140049500EAB1A19202C0AD095FBF1F001FB10556E
S214004960303502F8015B013405460028F2D107F025
S2140049700302012A55D1B8F1000F52D0099A12B994
S21400498017F00C0F01D008F1FF38302240E00990F4
S21400499076E74FF0060988E7A946002485E7002257
S2140049A0DDE90C01364B16F05BFB0028BBD10EB1DF
S2140049B0F007B8D50136B6E70A210EAB1A19202C37
S2140049C00DD0B6FBF1F001FB1063092E03F13003A6
S2140049D009F1FF3904F1010402F8013B11D8302136
S2140049E0A1440EAA202CB2D04C4504F101030AD1F2
S2140049F004F158020DEB02042E2204F8202C1C466B
S214004A00A5E70646DBE7A1541C46EBE71A5501343A
S214004A10444506D2202CF9D1CDE9028701940EAB8D
S214004A20CEE6202CF8D0099B3BB12D2204F158038A
S214004A306B4403F8202C0134EEE77A0704D504F122
S214004A4058032B226B44F4E73B07E5D504F15803E3
S214004A5020226B44EDE700BF0000000065CDCD418D
S214004A600000000065CDCDC10B1404000F14040037
S214004A70FFFFEF7F0214040007140400485D0400E3
S214004A800000E03F0000000070B58EB02C22002130
S214004A9003A816F0C1FE64234FF002320893CDE956
S214004AA005230B2301218DF834305B4B8DF8101055
S214004AB01D880D4040F0A980084634F053FF0A22B6
S214004AC0564B574C1A704FF42873ADF812304FF00F
S214004AD0FF332360534B54491B8820460B82534BAD
S214004AE0534A1B68CD828B61524B0D621B884B82EA
S214004AF0514B1B68CB611DF0FDFA20B14FF41B71C2
S214004B004E4835F0CAFF0521206831F0C2F820B1C2
S214004B1040F27D21494835F0C0FF206815F032FE8E
S214004B20474B2068196831F077F90C2535F082FB81
S214004B306843099035F07EFB68430DEB050107904E
S214004B40206817F02BFD20B140F295213B4835F048
S214004B50A4FF25681FF006FD00220146284631F016
S214004B60D3F920B140F29721344835F096FF40F251
S214004B700353344D344E2B80052396F90000AB705A
S214004B807F2801D11DF0ACFB3378EB7035F052FB7B
S214004B9000EB80008000A88035F04CFB0023C000AE
S214004BA04FF0FF31E880AB604FF0FF3018A3D3E939
S214004BB0002335F029F82549206831F05EF9206891
S214004BC002A931F07AFD20B14FF434711B4835F05C
S214004BD064FF042220680DEB020131F0F2F804288D
S214004BE004D040F2D721154835F057FF01A901201F
S214004BF030F0F3FC07F0AEFD01201DF0F5FF2CF0C1
S214004C0056FD1EF01BF81DF003FB0EB070BD00BF76
S214004C100A0020FF42030000C65B0020F26200206C
S214004C20E0550020F6760400A4690020FC76040017
S214004C308D990300F4760400F8760400D44C040042
S214004C40EC660020D45500207A6C0020019A030000
S214004C500348044B834202D0034B03B11847704706
S214004C60A86C0020A86C002000000000064B074936
S214004C70C91A891048BF0131491003D0044B0BB143
S214004C8001481847704700BFA86C0020A86C002099
S214004C900000000010B5064C237843B9FFF7D8FF94
S214004CA0044B13B10448AFF300800123237010BDFA
S214004CB0B0150020000000007C9A040008B5044BE4
S214004CC01BB104490448AFF30080BDE80840CDE7B7
S214004CD000000000B41500207C9A0400A3F5803A7A
S214004CE0704700BF154B002B08BF114B9D46FFF7C2
S214004CF0F5FF00218B460F461148124A121A16F08D
S214004D008BFD0C4B002B00D098470B4B002B00D094
S214004D1098470020002104000D000B4817F0C2F849
S214004D2016F052FD200029002BF022FB17F0A8F801
S214004D30000008000000000000000000081000202E
S214004D4008100020486300200DBF010007B50121B0
S214004D5020200DF1070201F04DF858B10223012181
S214004D6020200DF107028DF8073001F053F803B04C
S214004D705DF804FB9DF807100229F8D002220948C6
S214004D8015F038FC022301210DF1070220208DF8D2
S214004D90073001F03FF82BF045FA4FF4FA6000F0C8
S214004DA073FEE4E7C8AE030038B502F01DF901F063
S214004DB0BFF9012805D001F0BBF9022801D001F0A7
S214004DC0DDF9064D2B783BB901F0B2F9012804460F
S214004DD002D12BF0B0FA2C7038BD00BFA45C0020C6
S214004DE010B5044600882BF0F1F9A37884F8440047
S214004DF0834202BF0123E3702371074B04F11C00BA
S214004E00C4E9073401F04CF8224620880349BDE87F
S214004E10104000F089BF00BF63FF02002DFF0200B4
S214004E2070B5C37804460D461646002B34D1D1B172
S214004E30214815F0DFFB0123E370E36CA6600BB19D
S214004E40E06D9847E368F61A63699E4221D2217E98
S214004E501A480131C9B2217615F0CCFBA36D13B107
S214004E60217EE06D9847E5702BF0EFF915B32379B6
S214004E7003BBA268238A801A83421BD801231048EA
S214004E80237115F0B7FB236DA3B1E06DBDE870404C
S214004E90184701232376E6E70029E4D1094815F0F0
S214004EA0A9FB636DE660E5702571002BDBD0E06D35
S214004EB09847D8E770BD00BFF0AE030001AF03000F
S214004EC02FAF03001CAF030070B51E468388044650
S214004ED00D46C18002810BB1868070BD8178008846
S214004EE02BF060F80123E370064BA680C4E9033478
S214004EF00C34204600F0D4FF29462046BDE870401A
S214004F002BF09AB9AFFF020010B501790446B1FA4A
S214004F1081F1008849092BF0BCF821796088B1FA44
S214004F2081F149092BF0B5F8034B1A68A24204BF79
S214004F3000221A6010BD00BFCC150020F8B54379DA
S214004F400446ABB100880E4F0E4E3B6804F10805D0
S214004F5013B10D4B1B786BB121792BF09AF80B4BE4
S214004F603C6028463178A360BDE8F8402BF064B971
S214004F704088E8E7064815F03DFB064BF1E700BF22
S214004F80CC150020206C0020A55C0020094F0000F6
S214004F9045AF03003D4F000010B50446E0B10F4892
S214004FA015F028FB01236371A37953B92179208872
S214004FB02BF06FF8236B7BB1606B0121BDE81040CE
S214004FC018472046FFF7A0FF04F108002BF039F938
S214004FD02046FFF7B3FFEDE710BD00BF7BAF030031
S214004FE010B50446F8B1104815F004FB00236371B1
S214004FF0A3796BB921792088B1FA81F149092BF0A0
S21400500048F8236B7BB1606B0021BDE81040184761
S2140050102046FFF779FF04F108002BF012F920462E
S214005020FFF78CFFEDE710BD86AF030010B5044612
S21400503068B1074815F0DEFA637920461BB1BDE873
S2140050401040FFF7CDBFBDE81040FFF7A5BF10BD6D
S21400505092AF030010B50E4C0E48214615F0CAFA62
S21400506082210D4815F0C6FA82210220A21E00F009
S214005070D1FE014630B134F8022C0848BDE8104095
S21400508015F0B8BA0648BDE8104015F0B3BA00BF30
S21400509026570020A1AF0300BCAF0300C7AF030034
S2140050A00BB0030038B50E4C82212246022000F0D9
S2140050B0A1FEA51C014650B122880A4815F09AFAAE
S2140050C045222846084916F037FD4423238035F844
S2140050D0021C064A0648BDE8384015F08BBA00BFE9
S2140050E02457002016B0030096B003002657002071
S2140050F074B00300034B1B781BB18B4201D82BF016
S21400510091B87047216C002010B5044601460E4841
S21400511015F070FA012C11D10C4B0D481A884FF679
S214005120FF739A421EBF0022094B5A742AF097FF5B
S21400513002F0B0F8BDE8104001F082BF0448BDE8B8
S21400514010402AF08EBF00BFDBB00300D46B0020F7
S2140051507866002070B500241A4D1B4E3378A342A3
S2140051601BDC0024194D1A4E3378A3421BDC0024A6
S214005170184D194E3378A3421BDC00F0D9FF0128E6
S21400518016481CD12AF06BFF02F084F801F058FF95
S214005190BDE87040124800F0EBBF2846FFF720FE3F
S2140051A001346035DAE728462AF03FFF013434350B
S2140051B0DAE728462AF072FF01343835DAE72AF0B3
S2140051C050FFE5E734230020AB5C00205427002086
S2140051D0AC5C002004210020AA5C00207866002039
S2140051E0095100002DE9F04F87B0FFF75BFFB34B86
S2140051F005A805932AF076FF054616F009FAB04C86
S214005200C2B21F2A627004D9AE4815F0F3F900F056
S2140052102FFC2946A01C16F08FFC05A82AF062FF7A
S214005220054616F0F5F9C2B21F2A84F8212001D9E6
S214005230A548EAE7294604F1220016F07DFC05A8F9
S2140052402AF050FF3226044600272578002D40F02D
S2140052509F809E4CFFF77EFF2378DFF8B0A2DFF832
S214005260B0829B4F00939AF8003098F80020397867
S214005270984815F0BFF93A7898F800109AF80000A8
S21400528053180344DFF880B220782C46034458466F
S214005290DBB2AA4200F31683012B38BF01238E4EE1
S2140052A002933246002335464FF482714FF6FF7460
S2140052B002980133984213705180948002F10C02D8
S2140052C0F6DC864B84497E48AB6001F00DF8E87941
S2140052D0AB68DFF8309200EB400003EB800000F094
S2140052E0D3FDEB79B9F800200133A242EB7103D06D
S2140052F079497B4801F0FAF84FF6FF73B9F80020B9
S2140053007549D21A18BF0122764801F0D9FD4FF030
S2140053100009724C3A784A4500F3DC8200264FF0CA
S2140053200C09714ADFF8B0B198F800003978B0423D
S21400533000F3E48246180C21002501FB06B19AF81A
S21400534000009423A842694A00F3F6820C253E78B2
S21400535098F8003000274FF482781E44064405FB78
S21400536006B5DFF8B0A1594B1B78BB4200F3F782B5
S2140053700299594800F016FE059B50491A468B4282
S21400538040F000835A4807B0BDE8F04F15F032B938
S214005390532D0FD163784C2B40F05B81A378502BB4
S2140053A040F057810122534B1A7005A82AF09AFE46
S2140053B004464AE74C2D0ED16378502B40F0CB8044
S2140053C0A378303B092B00F2C680A01C2AF097FE7B
S2140053D0494B1870E9E7442D13D16378303B092B0D
S2140053E0E3D8601C2AF08BFE444B454A197800230C
S2140053F086B2994202F16002D7DD22F8466C01338C
S214005400F7E7422D0CD16378542B40F08580A01C22
S21400541000F0D8FC3B4B188018462AF064FDC4E721
S214005420582D33D8412DC0D9433D152DBDD801A3E5
S21400543053F825F031580000AB530000AB53000082
S214005440AB530000AB530000AB530000A555000063
S214005450AB530000AB530000575500009F540000AC
S214005460AB530000AB530000AB530000AB5300003F
S214005470D756000053560000AB530000AB53000055
S214005480AB530000AB5300004D570000692D8CD184
S214005490601C2AF034FE80B22AF0C0FE85E70C4B72
S2140054A0012019780023184A994202F1A8027FF7D2
S2140054B07CAF02F8A60C0133F6E700BF26570020A3
S2140054C08C650020FAB0030011B10300A65C002032
S2140054D0A95C002021B103009816002010170020B8
S2140054E048160020D0150020581D00209C1B0020C8
S2140054F071B10300A55C0020206C0020AB5C00208E
S21400550034230020D46B0020581E0020A75C002007
S214005510A85C002090180020601C00F053FC054694
S214005520E01C2AF064FE0121024628462AF01BFEF3
S2140055306021B048B04C03785943621865524FF466
S214005540FA6111824FF448715161AC495683116576
S2140055500133037029E7601C00F034FC00224FF092
S21400556034088146A64F11462AF0FDFD3878A54D31
S21400557008FB00F325F80390EA18E3781046693B29
S21400558018BF012393702AF050FD00219E4A3B78F5
S2140055905160012103FB08550B443B7015600F4614
S2140055A0117402E7601C00F00DFC002211468146D3
S2140055B02AF0D9FD3422924DDFF84882287802FB83
S2140055C000F328F8039008EB0301E3780846693BEC
S2140055D018BF01238B702AF028FD8C4A0023104642
S2140055E0916B31BB00EB831034232A7802FB0383D4
S2140055F08363874A00231046D2F8A410F9B9A8227C
S21400560002FB030034232A7802FB0383C0F8A4308D
S2140056105FB97D4A3B46114652F8040BA8B93422BE
S214005620287800FB028241F823202B7801332B7068
S214005630BBE60133042B02F14002D1D1D9E7013396
S214005640042B02F1A802D7D1E2E70133042BE3D101
S214005650EBE7601C00F0B6FB8046E01C2AF0C7FDB6
S2140056600121024640462AF07EFD60216148624DD7
S2140056700278DFF8B4C151436B1825F801804FF467
S21400568048711982596163495E839965E178A82457
S214005690642904BF012199709CF80030DFF870E19E
S2140056A05C430EEB04010EF804304FF400744C809B
S2140056B003240C718C7102EB420405EB4415322472
S2140056C00133DBB201324B718D6081F8A04002706D
S2140056D08CF8003069E6601C00F074FB00224FF086
S2140056E0380A8146DFF83C8111462AF03CFD98F8DE
S2140056F00030494D0AFB03F325F803904FF00109EB
S214005700EA1882F80490E37873B1E01C00F05AFBC4
S2140057100022044611462AF026FD98F800300AFBBF
S21400572003535C8083F806903C48384A0378990116
S214005730535498F8001002EB8314C1EBC10205EB3A
S214005740C2054A1C656388F8002001E7601C00F06B
S21400575039FB8046E01C00F035FB0546601D2AF04C
S21400576046FD04460246012140462AF0FCFC22463D
S214005770284601212AF0F7FC60204FF4487CDFF829
S21400578074E01D4A9EF8003000FB03F422F8048003
S214005790DFF880801119A1F810C0C1F814C04E833C
S2140057A0C1F85880591CC9B248431418A4F810C050
S2140057B0C4F814C06683C4F8588094241552184D53
S2140057C0981C8EF800002878DFF860C0444303EB8E
S2140057D0430301EB41010CEB040E02EB431302EB17
S2140057E041120CF80400CEF80430CEF80820013040
S2140057F02870DAE5AB5C002034230020CF000300DD
S214005800AC5C00205427002078660020581D00203D
S214005810581E0020F550000004210020A85C00203F
S214005820A75C0020AA5C0020A95C00209C1B00202E
S214005830601C00F0C7FA8046E01C00F0C3FA0022A5
S2140058400546114640462AF08EFC002238241146B2
S21400585028462AF088FC5048504A03784FF0000E3D
S21400586004FB03FC22F80C804FF0010802EB0C014D
S21400587081F806E081F8048003EB0801C9B24C43C6
S21400588002EB040C15539C1C04704FF48274444DB8
S2140058908CF806E028788CF804804443DFF808C1CA
S2140058A0C3EBC303C1EBC1010CEB040E02EBC30355
S2140058B002EBC1020CF80400CEF80430CEF8082043
S2140058C0404495E7467901358E4284BF04714471A1
S2140058D0A830DEE4B9F1000F06D016F8052C02EB6E
S2140058E0420204EB8204B4603146584601F0A6FE3C
S2140058F009F101090BF1A80B0C360BE571180AD05B
S214005900481E09FB00B0C07900EB400004EB8004A1
S21400591009FB01B08460104609FB0151039201F0B7
S2140059204BFC39781F48314409FB015101F0B2F9AC
S214005930039A01364032F7E4F54218BF11F8050C19
S21400594003911EBF00EB400004EB80048C6003FB59
S214005950052001F0AFF8039901350C31EFE4F7426A
S21400596018BF15F8053C29461CBF03EB430304EBA0
S214005970830408FB07A018BFAC6000F04DFF01379A
S2140059800C35F0E413F8011D00297FF4F6AC3B213A
S21400599002F8011CF1E400BFAA5C002004210020EC
S2140059A0A65C0020F82000209018002007B50121F2
S2140059B021200DF1070200F01DFA18B99DF8072006
S2140059C0024B1A7003B05DF804FB00BF216C002088
S2140059D007B5064B8DF80700187001210DF1070278
S2140059E0212000F017FA03B05DF804FB216C0020BC
S2140059F007B5022101200DF1060200F0FBF938B9C7
S214005A00044814F0F7FDBDF8060003B05DF804FB8B
S214005A100020FAE78EB1030007B50221ADF80600B4
S214005A200DF10602012000F0F5F9014610B1034819
S214005A3014F0E0FD03B05DF804FB00BFAFB1030057
S214005A4010B5FFF7D5FF04460146074814F0D2FD0F
S214005A500121064814F0CEFD24B9BDE8104001200F
S214005A60FFF7DABF10BD00BFDFB10300F1B10300DE
S214005A7008B5044814F0BEFD00F0DCF92AF0D2FBAD
S214005A802AF0CDFB07B2030038B50446084D094B93
S214005A9028462B6000F004FA002C18BF2146284642
S214005AA0BDE8384008BF4FF496712AF0C5BB00BF6A
S214005AB0582800201D0103002DE9F043384D91B011
S214005AC008AC0746894690460FCD0FC495E80F00F0
S214005AD0002684E80F0001250323324C3248CDE926
S214005AE00366CDE905668DF80E300796029534F00C
S214005AF07DFF2E4834F07AFF32462D4920468DF839
S214005B00176004F0C3FE334632462A498DF8190062
S214005B10009020468DF82390CDF82C808DF82160DB
S214005B2004F0CEFE0A9020468DF8097004F030FE90
S214005B30204608AA05A904F0E9FE02AA204603A901
S214005B402BF011FD4FF400721B4B5A62194BE560A7
S214005B50626A920510D46BB94FF40072164B114866
S214005B605A6204F015FE114834F043FF002011B0CD
S214005B70BDE8F083013BEBE7002BEDD0094908A810
S214005B802BF024FD4FF400720B4B06485A6204F0CB
S214005B90FFFD064834F02DFFBDF82000E7E700BF04
S214005BA0CC4D04000040005A7450040070500400AD
S214005BB080841E0040420F000060005A0122034B02
S214005BC01870034B1980034B1A707047AE5C0020A8
S214005BD0DC6B0020AD5C0020F8B5454B1B780BB99C
S214005BE00020F8BD434B1B78012B03D1BDE8F840DD
S214005BF02AF097BA404B1C884FF6FF739C42EFD0B2
S214005C003E4834F0F3FE0023260AE4B21A46214644
S214005C10304604F07DFD012E354604F0010335D0F4
S214005C2015D9B51E012DDBD8002B0BBF4FF48075A0
S214005C304FF080754FF470614FF070610BBF012715
S214005C404FF480370F204FF470202D4B11E0002BBF
S214005C500BBF4FF480754FF080754FF470614FF0B6
S214005C6070610BBF01274FF480370F204FF4702070
S214005C70244B1A6802401CD0BA421AD01A680A404E
S214005C8032D11A6822EA01022A4316E0002B0BBF23
S214005C904FF480754FF080754FF470614FF070616F
S214005CA00BBF01274FF480370F204FF47020164BA0
S214005CB0DFE71A6822EA00023A431A602AF031FA4D
S214005CC0054600288CD0083644EA06102A460321EA
S214005CD0C0B2FFF7F1FE40F6FF73684300F2FF70B4
S214005CE0B0FBF3F080B27CE795427FF479AFC8E76B
S214005CF0AD5C0020AE5C0020DC6B0020745004001D
S214005D0028C3035020C3035024C3035010B5044CCB
S214005D10237823B9034834F069FE0123237010BDAD
S214005D20B05C0020745004002DE9F0431F4C85B091
S214005D30074688469146FFF7E9FF23781BB902F02D
S214005D4097F9012323707BBAADF80C30302200237C
S214005D50174E02FB03F4315DA51901BB0123335531
S214005D604FF0FF3304F1100012493044AB606F80EF
S214005D70C5F80480C5F80C9009F00CFC04F1080185
S214005D80042231440C4B009503A802F047FAA96898
S214005D9002460A4814F02EFC05B0BDE8F083013335
S214005DA0102BD6D1064814F025FCF5E7AF5C002092
S214005DB080280020470103005901030014B20300A5
S214005DC042B2030080B10278A2F14103032B0BD844
S214005DD040783038C0B2082806D8054B134413F86C
S214005DE0413C40EA032070474FF6FF70704700BF03
S214005DF0EC4D040008B50B4642B101460448006865
S214005E0003F050FBBDE808402AF002BA022008BDA5
S214005E10E466002008B50B4642B101460448006817
S214005E2003F0C8FCBDE808402AF0F2B9022008BD1D
S214005E30E4660020F0B50026124F8DB0FF230093D5
S214005E400A223346386802A92BF04AF9C0B102ABE1
S214005E501D4603EB800404E055F8043BB34228BF1C
S214005E605E1CAC423868E9D9296803F029FE002890
S214005E70F2D02D28F0D00DB0BDE8F0402AF0C8B919
S214005E800DB0F0BDE466002028B1034B0360034B61
S214005E904360002383607047190000038C6600206F
S214005EA0FF2307B50021044A0093083009F0F6FAEC
S214005EB003B05DF804FB00BF330203000B46044941
S214005EC0024608680349097808B12AF0D9B970472C
S214005ED08C2B0020B25C0020F7B50C4618B12921A7
S214005EE0194834F0DAFD246823685E795F88304606
S214005EF03946FFF7E3FFF0B18568E5B1A089227D5A
S214005F003946904291BF0020801AA36880B294BFA1
S214005F1003469B18E27C00903046A84701380328C9
S214005F2003D8DFE800F0080F0B0D002420462EF003
S214005F3009FC204600E0812003B0F0BD8024F5E790
S214005F409324F3E78724F1E76AB20300F8B5154611
S214005F500D4A044610680D4A0B46117850B1224689
S214005F602AF08EF9034628B100210C27C678B142E4
S214005F7001DB0020F8BD07FB01F45A681019125B1C
S214005F80AA42F7D00131F2E78C2B0020B25C002049
S214005F9008B5034B1B6803B19847002008BD00BF37
S214005FA0882B00202DE9F74F04460D460026454B6A
S214005FB0454F1860454B197033010021F85C0136D7
S214005FC010F03CFB0C2EF7D10C2D28BF0C254FF003
S214005FD0000901953C4EDFF800A13D4DDFF8FC803E
S214005FE0019B4B4502DC03B0BDE8F08F23784FF0F1
S214005FF0000B337063887380A388B380A379C6F8D8
S2140060000880B371E379C8F8005088F804304FF080
S2140060100003A768A8F80630E3795B450ADC01218F
S21400602016F8100B10F00AFB08F1080809F1010930
S2140060300C34D5E74FF0000338886B812880FB7856
S2140060404FF0000C2B81BA78C5F804A0002A009205
S2140060500CBF802240222A7379680AF10C0263453D
S21400606013DC03EB43030AEB830ABB6843B1009AD5
S2140060704FF6FF71B2FA82F2164B52092EF0F2FA80
S21400608014350BF1010B0C37C6E7B1F800E00CF144
S214006090010C22F80CEC91F802E00C3202F816EC37
S2140060A091F804E00C3102F815EC11F809ECBEF199
S2140060B0010F14BF4FF0100E4FF0110E02F814EC43
S2140060C0CDE700BF8C2B0020C4420020B25C00202D
S2140060D090310020D95E0000902B00201034002064
S2140060E0014B1860704700BF842B0020014B1860DE
S2140060F0704700BF882B002070B5128805460E46F4
S214006100FFF724FF044670B102790499806815F001
S214006110D5FB064B1B680BB9002070BD31462846E0
S21400612022889847F8E78620F7E700BF842B0020F0
S21400613008B50FF01FFB022806D0012806D0044B36
S21400614018784000C0B208BD0120FCE70220FAE73C
S214006150B15C0020054B10B51C682CB1FFF7E8FFBA
S2140061602346BDE81040184710BD00BF802B002016
S214006170014B1860704700BF802B0020034B1A7835
S2140061801AB901221A700BF055BB7047B15C00209B
S2140061900022024B1A70FFF7DDBF00BFB15C002083
S2140061A037B50446002836D00FF0E4FA022834D17A
S2140061B060892EF029FEE079237A003818BF012086
S2140061C0012B637A08BF40F008000BB140F01000C6
S2140061D063890BB140F00400257CA188A2790DB13B
S2140061E0E36893B90F4B10F005FE2178084610F0CF
S2140061F07DFE2EF032F9044610F036FE7CB1002803
S2140062000CBF0020032003B030BDCDE90035064B9F
S21400621010F0F0FDE9E70220F5E70120F3E720465D
S214006220F1E700BF35030400FED2030008B50DF009
S2140062305FFC014630B1044814F0DCF9BDE80840C4
S2140062400DF0FABF08BD00BFDCB20300034B044AE2
S2140062505B7C012103201370FFF7DCBD786600200D
S214006260B35C002010B50446FFF7F0FFB4F57F4F8F
S2140062700BD100240F4B1A8813449C70FEF7EAFEDD
S2140062802046BDE81040FFF7FFBB4FF601739C4267
S21400629004D1BDE81040084829F0C9BE4FF6027385
S2140062A09C4205D1BDE81040044B1878FFF790BB20
S2140062B010BD00BF2457002078660020216C002007
S2140062C010B5074C012122460320FFF793FD28B99D
S2140062D02378044A003B18BF0123537410BD00BF47
S2140062E0B35C002078660020F8B5564B30251A8837
S2140062F04FF6FF739A4218BF03234FF00802524C22
S21400630018BF2370514B1A7032229D705D7139256B
S2140063105A70DA7036229D7131251A711A724FF44E
S2140063200012DD714A4D4264C5644A4D012205657E
S214006330494D86188565494DC667C565484D494E21
S2140063404566494D80F848208566484D80F85420BB
S2140063500567474D80F860204567202580F878500F
S21400636080F8845000F12105C0F88850414D80F82F
S2140063706C20C0F88C50C0F8806080F89020C0F880
S2140063809440C0F8B8303C4B3C4CC0F8BC300223BC
S214006390C0F898403A4C80F8C030C0F8A4400F24AB
S2140063A0384B80F8A840C0F8C430374B374CC0F89C
S2140063B0C8308223C0F8AC40354C80F8CC30C0F8EA
S2140063C0B0400924334B344DC0F8D030334B80F8FE
S2140063D0B440C0F8D4302C7C314B80F89C20C0F8F8
S2140063E0A00080F8D820C0F8DC3044B12D4B80F8EF
S2140063F0E420C0F8E03005F11103C0F8E8304FF0B3
S214006400000CCA798E6802EB42039F00443006EB0C
S214006410830326F807C0586001200D349870DC709E
S2140064201318CB71FFF7C2FAFFF74AFFFFF780FE9B
S214006430012806D12B7C23B1BDE8F840164829F088
S214006440F6BDF8BDD46B0020226C0020B45C0020A2
S214006450054E040001002000044E04000200200047
S214006460034E04000500420003002000024E040014
S2140064700400420007003000FDFF2100120010015A
S21400648000404200004E040000FF4401F04D0400AE
S21400649006004200245700207866002002FF2001F4
S2140064A0216C002001FF100113B504460D4829F0A9
S2140064B025FD6422C0F30F43637083B2B3FBF2F38F
S2140064C0A07823702022012129F0FCFEA07821224A
S2140064D0012129F0F7FE0449201D02B0BDE8104056
S2140064E029F0AABED46B0020E09304000B7870B5A8
S2140064F083704CF61E0303804FF02013C362012303
S21400650080F8303080F83C30C3180364124B0446E1
S21400651043640223114A80F84830114B8263C364F7
S2140065204063CA798D6802EB420305EB830004F1F1
S2140065302C0646600B4E45F8236000238360531CF0
S214006540CB71094B201DC4E90134FFF7A9FC204696
S214006550BDE87040FFF7A8BFFDFF21002100200026
S214006560064E040001000103A9640000F8B54FF6CA
S214006570FF73994204460E4609D0B0F87E308B422F
S21400658005D04FF6FE729142037B01D10BB9F8BDE0
S214006590EBB1204629F073FF204629F033FF4FF673
S2140065A0FE739E4213D1A068FEF71AFD6068FEF7E0
S2140065B017FD29F04AFE00232373A0674FF47F429D
S2140065C060784FF48171BDE8F84029F07BBEB4F8DE
S2140065D07E50237BB5422CBF02250125AB4218D046
S2140065E0D4E90107637B13B13B4607461846012DE5
S2140065F041D1FEF7D1FC3846FEF7F2FC29F025FE25
S2140066004FF47F42A0674FF481716078257329F0BC
S21400661059FEE389A4F8806004F1B4060BB9238A16
S2140066207BB3B4F87E30A4F8883029F00EFE012D36
S214006630B4F87E30B4F88020C4F8840038D1D31A79
S214006640022DE18903D1208A002818BF014659434C
S2140066506423594342F21073B1FBF3F10AB19A4234
S21400666001D101F6B831304629F0E6FD2046BDE8F6
S214006670F84029F00FBFFEF7B3FC3846FEF78CFC57
S214006680BCE742F21072012D08BF1346A4F87E3014
S21400669014BF0023642360784FF48171A375082229
S2140066A029F010FE3046BDE8F840024929F0C4BD86
S2140066B09B1AC5E7E0930400094A437B0C2113703C
S2140066C0C3895380038A9380438AD380838A138145
S2140066D0B0F87E30538100781130C0B2FFF79ABB15
S2140066E0A657002038B5044600780D4D11302A46CE
S2140066F00C21C0B2FFF77EFB80B92B78204663736F
S2140067006B88E381AB882382EB8863822B89A38224
S2140067106B89A4F87E3029F03FFEA07538BD00BF17
S214006720A6570020024B53F8200029F05EBF00BF9A
S2140067307034002010B50446052923D8DFE801F0A0
S21400674003080C222210204629F044FF002010BD2A
S214006750204629F043FFF9E7204629F042FFF5E7F7
S214006760E18911B9218A0029F0D082B17BB1117874
S21400677064290ED8204629F02CFE0146204629F032
S2140067801AFFE3E7044813F035FF0120DFE7032094
S214006790DDE70220DBE700BF09B3030010B4054CB9
S2140067A0114654F820001A46BDF804305DF8044B34
S2140067B0FFF7C0BF7034002000234FF0967210B56C
S2140067C0C0E903233222044682750F4A8382C267D9
S2140067D0C0F88430A0F888308367A0F880308C300A
S2140067E0FFF75EFB094B04F1B400C4E92334FFF75E
S2140067F057FB074B04F1DC00C4E92D34FFF750FBD0
S214006800044BC4E9373410BDFFFF8813C5050300E9
S214006810D1040300B904030038B504460B78294AAE
S21400682043700D4642F82300FFF7C6FF2046FFF7E9
S21400683059FF4FF44013A3610123237784F82830CF
S21400684084F8343084F8403004F10D0363641E4B42
S2140068501E4AA364022322621D4A84F84C306262F8
S21400686004F11602E2621B4A84F85830226304F1EF
S2140068700C02A263184A84F86430E26304F10E0244
S2140068802265164A84F87030626504F11002E265EB
S214006890134A04F11403226604F11202A266114A96
S2140068A06367E266EA79A86802EB420300EB8301BD
S2140068B018344C600C4C40F823400C4B8B60531C37
S2140068C0EB7138BD7034002002FF2101BD5C002052
S2140068D00800200000FF300001FF100103FF210127
S2140068E004FF210105FF2101020101089D67000048
S2140068F010B44FF48274427B0C48013A012904FB21
S214006900020006D0022908D059B95DF8044B29F0D8
S21400691061BE5DF8044B29F061BE5DF8044B29F0BA
S21400692060BE03485DF8044B13F064BE9018002068
S21400693025B30300B0F85C302DE9F0418B420446E5
S2140069400E4639D0437B077C93B31C4A12789A4292
S2140069502ED34FF482751A4A013B05FB032390F8A9
S2140069600F801B7B424629F059FEB845054601D1EB
S214006970FF281FD13A463146204694F8903029F039
S2140069804DFE2F460546552212216078A4F85C601D
S21400699029F098FCFF2F03D039462046FFF7A8FFC2
S2140069A0FF2D09D029462046BDE8F04129F076BEE5
S2140069B0FF25DFE70746E6E7BDE8F081A65C002096
S2140069C09018002041688268C978D27849B112B11F
S2140069D00321FFF7AFBF837B002B0CBF01210221F1
S2140069E0F7E72AB1837B002B0CBF02210121F0E7D9
S2140069F0014813F0FFBD00BF36B30300037BD3B1DD
S214006A004368DA7812B18268D278A2B91B7933B1BA
S214006A10837B002B0CBF04210521FFF78BBF836807
S214006A201B792BB1837B002B0CBF05210421F4E7D7
S214006A30014813F0DFBD704768B30300084A437B84
S214006A4005211370837B5370C37B9370037CD370D4
S214006A50037B137100780E30C0B2FFF7DBB900BFBE
S214006A60BE5C002038B5044600780C4D0E302A4631
S214006A700521C0B2FFF7BEF920B1BDE8384008488E
S214006A8013F0B8BD2B7863736B78A373AB78E3739E
S214006A90EB7823742B79237338BD00BFBE5C0020CF
S214006AA0A4B30300024B53F8200029F041BE00BFF8
S214006AB098340020F8B504460B78424A43700D46D9
S214006AC042F82300404E29F051FEFFF7CBFF6268E4
S214006AD0A3683E483E49D6641165D4655065C3E94F
S214006AE01410DE64DC654FF09873022663610123A0
S214006AF004F10C01E16137491032216204F10D0105
S214006B00A16235492376E16204F10E0161633349DF
S214006B1084F82430A16304F10F012164304984F81D
S214006B203030616404F11001E1642E4984F83C3091
S214006B3084F84830216584F85460A265E879A9682D
S214006B4000EB400201EB820704F1140CC7F804C006
S214006B504FF4817C244F41F82270C218D2B202EB67
S214006B60420241F822C001EB820700227A601F4AE7
S214006B7084F8703022661E4A84F88830A2661D4A61
S214006B801D4BE2661D4AC4F88C3062671C4A8319A6
S214006B90A26704F15C02C4F88020DBB2194A03EB5A
S214006BA04303C4F8842084F8646084F87C6001EBB6
S214006BB0830260345460144A033041F82320E8719D
S214006BC0F8BD00BF98340020C5690000F306030036
S214006BD0FD690000010020010200100103003001E1
S214006BE0040030010500210101FC01064A002100D5
S214006BF0084E0400510010000A4E04000B4E04001C
S214006C00550021006F0018001200010470B50D46F3
S214006C100646144613460A4601461A4813F0EAFC8E
S214006C2025B92046BDE87040FFF71CBB072D05D1EF
S214006C3021463046BDE8704000F0C4BC4FF6014324
S214006C409D4205D121463046BDE87040FFF72ABF79
S214006C50062D05D121463046BDE8704000F066BAE4
S214006C60B5F5817F05D121463046BDE87040FFF777
S214006C7059BD202D04D12046BDE8704000F0ECB888
S214006C8070BD00BFD3B303000148FFF729BA00BFA9
S214006C900D6C00004FF4C01330B503600123037180
S214006CA0074B8C688360CA7902EB420304EB8305CA
S214006CB06860044844F82300531CCB7130BD00BF05
S214006CC00C4E0400040001010368064A0C21136000
S214006CD04368536003891381438922205381FFF759
S214006CE099B800BFC034002010B50368044686B0CB
S214006CF0FBB1114813F07EFCA37B104A8DF80430DC
S214006D004FF48273ADF806300123CDE90223002349
S214006D1001A804938DF81430FFF742FA20466189E3
S214006D2029F034FD2046FA2150F8143B594329F047
S214006D3083FA06B010BD00BF06B4030020000001B1
S214006D4010B5064C236843B1054813F053FC206881
S214006D50BDE81040418929F019BD10BDCC34002093
S214006D6027B4030070B5364910460C68BDF81020ED
S214006D70002C5ED003285CD8DFE800F0021E274512
S214006D80002B5AD0022A58D91D78B3F80160291E64
S214006D9018BF012132462B4813F02CFC2DB131468A
S214006DA0204629F0F3FC002070BDE573FA206368E6
S214006DB0584329F0C8FAF6E7234813F01BFCE37B98
S214006DC0002B38D00023E373F0E7002B35D0032ADE
S214006DD033D91D681D48294613F00CFC1C4B2A1F8E
S214006DE09A4201D90220DFE723680BB19D42F9D809
S214006DF023899D42F6D3E37B6560B3B9FA206843E6
S214006E0029F0A1FA11E0002BCED0012ACCD91D889A
S214006E101048294613F0EEFB002DE3D063689D4230
S214006E20E0D8E37B2581002BE8D12046FFF74CFF16
S214006E30B9E70120B8E70420B6E70320B4E700BFAF
S214006E40CC3400204AB4030081B40300A0B403008D
S214006E50FCFF6D00CBB4030038B5154B1C6834B38B
S214006E60F0B92168134813F0C5FB23683BB162688C
S214006E70934204D2104813F0BDFB6368236004F10C
S214006E801405284629F0DDF9236823B1FA2128469F
S214006E90594329F0D1F92046BDE83840FFF714BF22
S214006EA0032804D16189054813F0A4FBF3E738BD35
S214006EB0CC340020F6B4030024B5030059B5030013
S214006EC070B53E4B0D46044609781860002A6FD10F
S214006ED001231A46A1730021E1730121A1814FF419
S214006EE06151C4E900132823354E22810C21324615
S214006EF022206381FEF77EFF60B9D6E900230AB13F
S214006F009A4207D3318999429FBFC4E90023738907
S214006F10218163812B4B2C4AE363042384F84030A1
S214006F2084F84C30E3182365284BA264636502237B
S214006F3004F10802E265264A84F85830226604F115
S214006F400A02A266234A84F8643084F8703004F19A
S214006F500C03E26663676464EA79A86802EB42039E
S214006F6000EB830104F13C064E601B4E40F82360A4
S214006F70FA261A4B1A488B60531CEB71FFF7B6F8CB
S214006F80208904F11405704329F0DDF96189204653
S214006F9029F0FCFB134B2846C4E90534FEF780FFB6
S214006FA0216849B128467143BDE8704029F044B9CC
S214006FB04FF4F07302228DE770BD00BFCC34002082
S214006FC0C03400200000230101002300020021003D
S214006FD003002101FDFF210020000105656D000072
S214006FE0416D0000E96C0000134B10B51C680CB333
S214006FF0E37BEBB129F029F92369C01A002809DBE5
S2140070000E4813F0F7FA0023FA20E3736368584338
S21400701029F099F9E37B5BB12489FA235C4329F0D4
S2140070209DF9A04206D02046BDE8104029F08BB955
S2140070306468F2E710BD00BFCC34002086B50300BC
S21400704038B50024044D55F8040B08B129F0B1FBFF
S21400705001340A2CF7D138BDD0340020042908B5F5
S2140070600AD172B16BB113781BB929F0CDFB0020A1
S21400707008BD29F0BFFBFAE7034813F0BBFA01206E
S214007080F6E70320F4E700BFC0B5030010B4054CD4
S214007090114654F820001A46BDF804305DF8044B3B
S2140070A0FFF7DCBFD03400200229024608B50ED018
S2140070B004D839B9104629F0A7FB06E04029F9D0D4
S2140070C0412907D1104629F095FB002008BD29F07C
S2140070D0A5FBFAE7024813F08DFA0120F6E700BF99
S2140070E0E0B5030010B4054C114654F820001A46CB
S2140070F0BDF804305DF8044BFFF7D6BFD03400204F
S214007100426B094B52791A7082785A70C2789A701C
S214007110826B12B190F83C20DA70007804210930B6
S214007120014AC0B2FEF776BEC35C0020024B53F89D
S214007130200029F08FBB00BFD034002038B50446AD
S2140071400078084D09302A460421C0B2FEF752FEE8
S21400715030B96B78A370AB78E370EB7884F83C308A
S21400716038BD00BFC35C002038B504460078114D1A
S21400717009302A460421C0B2FEF73CFEC8B9A378FF
S2140071802A78022B0CD004D863B9204629F03CFBA1
S21400719001E0FF2B0AD02046BDE8384029F009BBA5
S2140071A0002AF2D1204629F025FBF4E7002AF9D17F
S2140071B0EBE738BDC35C0020F8B504460B78284AD8
S2140071C00D4642F823004370FFF7B8FF636B254A6D
S2140071D05C631A632046FFF7C7FF204629F0E9FAEA
S2140071E04FF4801363600123626BA66B0532E26086
S2140071F01D4A23722261A21C2375A26166B11B4A36
S21400720084F82030E261E21C6262194A84F82C306D
S21400721004F13C03A26223630627EA79A96802EB1D
S2140072204203002E21F8237001EB83000CBF0223DB
S2140072300423C370012383700E4B04348360531CF5
S2140072404460DBB20C4C03EB430341F8234001EBF4
S214007250830000234360094B02328360EA71F8BD65
S214007260D0340020310803000340300101FF300114
S21400727002FF1001E5700000080001008D7000009C
S21400728028B1034B1B78834234BF0020012070478F
S214007290A85C002070B500250A4C0B4E3378AB4234
S2140072A000DC70BDD4F8A42042B123791BB160790C
S2140072B0FFF7E6FF10B9104628F0AAFE0135A834FD
S2140072C0ECE700BF581E0020A95C002008B54279F4
S2140072D001461046FFF7D4FFA8B1CB780A48013A1A
S2140072E0042B00EB82100ED8012B08D81BB9BDE882
S2140072F0084029F07FBABDE8084029F085BABDE805
S214007300084029F08BBA08BD581D002008B5427900
S21400731001461046FFF7B4FFA8B1CB780A48013AF9
S214007320042B00EB82100ED8012B08D81BB9BDE841
S214007330084029F069BABDE8084029F05BBABDE804
S214007340084029F06BBA08BD581D002010B586B05D
S2140073500446FEF7EDFE012830D1E278042A2DD847
S214007360DFE802F013323403030061790846FFF7C2
S21400737087FF58B31648032A00EB811050F80C3CE0
S21400738058791DD1003818BF012063784FF48072F9
S2140073908DF804304FF48273ADF806300623ADF84E
S2140073A0083001238DF80B3000238DF80A0001A861
S2140073B0CDE903238DF81430FEF7F2FE06B010BDBB
S2140073C0B0FA80F04009E0E70020DEE70220DCE7C4
S2140073D0581D002010B586B00446FEF7A9FE012809
S2140073E030D1E278042A2DD8DFE802F013133203F6
S2140073F0030061790846FFF743FF48B31548032AA0
S21400740000EB811050F80C3C5B791DD11A1E18BF9A
S214007410012263788DF80A208DF804304FF48273C9
S214007420ADF806300623ADF8083001234FF480721D
S2140074308DF80B30002301A8CDE903238DF8143016
S214007440FEF7AEFE06B010BDB3FA83F25209E0E7CF
S2140074500222DEE7581D002010B586B00446FEF76F
S21400746067FE012812D16378094A8DF804304FF47C
S2140074708273ADF806304FF48073CDE90223002303
S21400748001A804938DF81430FEF78AFE06B010BDEE
S2140074900800070110B586B00446FEF749FE01282D
S2140074A020D16278104B8DF804204FF4827294F845
S2140074B0A01094F8A10059701870ADF80620049337
S2140074C04FF480720223094901A88DF81430CDE9E3
S2140074D00212FEF765FE94F8A130013B18BF0123A7
S2140074E084F8A13006B010BDC75C00200800050176
S2140074F010B58378044603B30379022B0AD1427988
S2140075001046FFF7BDFE28B10C48013A00EB82108A
S21400751029F084F9A379022B02D12046FFF716FF43
S2140075202046FFF7B7FF02236078A4F86C30552298
S214007530BDE81040122128F0C5BE10BD581D002021
S2140075404388094A082113808388538083681B8AEE
S214007550938090F8A03093718379D37100780430CB
S214007560C0B2FEF757BC00BFB257002038B50D4674
S21400757004460178114813F03DF84FF602739D4219
S2140075800ED10F4B1B782BB963712046BDE83840EF
S214007590FFF7D6BF62790AB19342F6D20123F3E72A
S2140075A0B5F57F4FF1D1204629F0D1F9A378022B0B
S2140075B00CBF01220022A3689A70E6E7FCB5030020
S2140075C0A85C0020024B53F82000FFF7CFBF00BF97
S2140075D0F834002038B504460078144D04302A46A6
S2140075E00821C0B2FEF706FC20B1BDE838401048BE
S2140075F013F000B82B8863806B88E978A380AA888C
S214007600A3681A82AB7984F8A030EB79A371094B92
S2140076101B780BB9637138BD09B19942FBD906488E
S21400762012F0E8FF23780133F4E700BFB2570020DA
S21400763016B60300A85C00203FB60300F8B5044663
S2140076400B78474A0D4642F823004370FFF7C2FF07
S214007650A268444BD465D364434B02265365434B20
S214007660A11C13654FF44013E36001236161E162DE
S2140076703F49103221632265211D3E4AA1633E48E0
S2140076803E49626504F1A002A061E163E265E01C88
S214007690611D3B4A206261643A483B492266A21D4E
S2140076A02374237784F8283084F8343084F8403004
S2140076B0A16484F84C6084F8583084F864306062C2
S2140076C0A266E879AA6800EB400102EB810704F1A4
S2140076D00C0CC7F804C04FF0060C2C4F42F8217073
S2140076E0C118C9B201EB410142F821C002EB810783
S2140076F000217960264F84F880302767254F84F86C
S2140077009830A767244F254BE767254F84F87460A9
S21400771084F88C60C4F89C3004F16C06831CC4F8B2
S2140077208470C4F890601F4F1F4EDBB203EB430318
S214007730C4F89460C4F8887002EB830670347460F2
S21400774008261A4C42F82340C31CDBB203EB430363
S21400775002EB8304043042F823606160E871F8BDF0
S214007760F8340020A5080300EF080300F1740000B9
S21400777001FF300104FF20011000300102FF20014C
S21400778005FF300100FF300103FF2101070001085B
S2140077904A0021000E4E040051001000104E040056
S2140077A0114E0400550021006F001800120001045D
S2140077B000239B6AB3F5804F03D21968064A9142AC
S2140077C003D00023037083607047012202709A681A
S2140077D09B694260F7E700BF07B0CD5E024B034AE5
S2140077E01A602AF0D8BC00BF0000002002020FF08A
S2140077F073B53F4B04461A781AB102221A7002B0CB
S21400780070BDCDE900220028F9D001261E7033F0A5
S2140078104FF8384D384B186017F0CEFC2B785BB914
S21400782002F0F2F940B935480823354A3549006870
S21400783001F038FE00B92E70334B5A68E260334AC6
S2140078409A601A6E22605A6E6260D3F87021A26047
S2140078501B6E5C042CD52E4AD368D807FCD42D4B5F
S2140078601A68531C29D04FF4801393402A4A136693
S2140078700423294C4FF0804223664FF4806323662E
S214007880102323664FF400536846236601A9226638
S214007890636629F074F8009B2366019B63662B7869
S2140078A0002BACD0164B1A6822665B686366A6E7A8
S2140078B01A4AD368D907FCD4D1E7194B1B78002B9A
S2140078C0D6D1184B5A68144B12B94FF480121A6668
S2140078D0154A526812B94FF400121A66134B5B68C9
S2140078E0002BC5D14FF480020B4B1A66C0E700BFD1
S2140078F0CA5C0020CB5C002030350020E466002007
S21400790034350020007108000080004455CEAC00DD
S21400791000000440B06600200090004400000450C0
S214007920C95C00200080055000C0055000000650CD
S21400793038B5224D04462B78012B02D001232B703C
S21400794038BD0028FCD029F03FF8013009D029F0D6
S2140079503BF840F20113984203D0194AD368DB077C
S214007960FCD42268174B1A6662685A66A268C3F887
S2140079707021E268D40744BF00229A60124B1A684E
S214007980013213D1114A127882B911494968C807E1
S21400799048BF1A600F4A5268D10744BF01221A60D6
S2140079A00D4A5268D20744BF02221A6017F00CFC38
S2140079B00A4B186832F077FF0023C0E7CA5C002045
S2140079C00000044000800044B0660020C95C00202F
S2140079D00080055000C005500000065030350020DD
S2140079E070B50024A36AB3F5804F23D21A68134BF0
S2140079F09A421FD1124E337813F0FD0518D14FF47A
S214007A0080341048FFF7F4FE032004F04FFC0E4BC2
S214007A100320DC6004F02EFC0C4B1C61AB6ADB69B7
S214007A20984704460748FFF783FF0CB901233370D5
S214007A30204670BD4FF48174FAE700BF07B0CD5EF4
S214007A40C95C00202035002000A0004400900044BF
S214007A5013B5204B1B7803B9FEE700231E4CCDE977
S214007A6000336A4608231D49206801F01BFDF8B95B
S214007A701B4AD2F84031D2F840211F2B4FF00103A9
S214007A8011D9203A9340019A1A43019208236A4674
S214007A901249206801F08EFE124B134A1A602AF033
S214007AA07AFB02B010BD9340009A1A430092EDE7AD
S214007AB02D28F1D10A4AD2F84031D2F840211F2BA6
S214007AC04FF0010385BF203A93409340019398BF3F
S214007AD00093DBE7CA5C0020E46600200071080023
S214007AE000800044000000200B020FF038B500258F
S214007AF0AB6A0446B3F5804F10D21B6BB3F5804FCC
S214007B000CD20748FFF774FEAB6A20461B6B5B6817
S214007B109847BDE838400248FFF70ABF38BD00BFA7
S214007B203C35002013B50024A36A0190B3F5804FBE
S214007B3013D21B6BB3F5804F0FD20948FFF758FEE0
S214007B40A36A01211B6B01A89B6998470446044859
S214007B50FFF7EEFE204602B010BD4FF48174F9E741
S214007B603C35002070B50026B36A0446B3F5804F56
S214007B700D4612D21B6BB3F5804F0ED20848FFF7A6
S214007B8037FEB36A20461B6B29469B699847044616
S214007B900348FFF7CDFE204670BD4FF48174FAE728
S214007BA03C35002070B50026B36A0446B3F5804F16
S214007BB00D4612D21B6BB3F5804F0ED20848FFF766
S214007BC017FEB36A20461B6B2946DB6998470446B6
S214007BD00348FFF7ADFE204670BD4FF48174FAE708
S214007BE03C350020F8B50027BB6A0446B3F5804F45
S214007BF00D46164611D21B6B7BB10948FFF7F8FD00
S214007C00BB6A20461B6B324629465B6A9847044689
S214007C100348FFF78DFE2046F8BD4FF40174FAE7DF
S214007C203C35002070B50026B36A0446B3F5804F95
S214007C300D4612D21B6BB3F5804F0ED20848FFF7E5
S214007C40D7FDB36A20461B6B29469B6A98470446B5
S214007C500348FFF76DFE204670BD4FF40174FAE747
S214007C603C350020F0B50027BB6A0446B3F5804FCC
S214007C700D461646ADF5337D20D21B6BB3F5804F0F
S214007C801CD21048FFF7B4FDBB6A20461B6B40F2BF
S214007C90C1225B6A01A99847044630B10948FFF73C
S214007CA047FE20460DF5337DF0BD836A32461B6BDA
S214007CB02946DB6A01A898470446EFE74FF40174AB
S214007CC0EFE700BF3C35002010B50024A36AB3F5EB
S214007CD0804F10D21B6BB3F5804F0CD20748FFF7CE
S214007CE087FDA36A1B6B1B6B984704460348FFF788
S214007CF01FFE204610BD0124FBE700BF3C350020D8
S214007D00F0B58FB0044601A80E461546FFF7EEFE06
S214007D109DF80C30012B12D1B5F5402F27D8B4F5BD
S214007D20402F24D86319B3F5402F20D821462A4681
S214007D30304613F001FF002420460FB0F0BD0027A8
S214007D40BB6AB3F5804F15D21B6BB3F5804F11D2CB
S214007D500A48FFF74DFDBB6A2A461B6B3146204694
S214007D605B6B984704460548FFF7E2FDE4E740F200
S214007D700244E1E740F20114DEE700BF3C35002094
S214007D80F0B58FB0044601A80E461546FFF7AEFEC6
S214007D909DF80C30012B1FD1B5F5402F06D8B4F551
S214007DA0402F03D86319B3F5402F13D940F202448D
S214007DB020460FB0F0BDE258013225D104339D4273
S214007DC0F9D82A463146204628F02EFE0028EDD067
S214007DD00024EDE70023F2E70027BB6AB3F5804FE7
S214007DE015D21B6BB3F5804F11D20A48FFF700FD82
S214007DF0BB6A2A461B6B314620469B6B9847044657
S214007E000448FFF795FDD3E740F20344D0E740F27D
S214007E100114CDE73C35002070B58EB0044601A8AD
S214007E200D46FFF763FE9DF80C30012B22D144EA85
S214007E300503C3F30C03002B33D1B5F5402F04D94B
S214007E4040F2024420460EB070BDB4F5402FF7D87D
S214007E502544B5F5402FF3D8204604F5005428F005
S214007E60DCFDAC4202D00028F6D1E9E70028E7D0D6
S214007E700024E7E70026B36AB3F5804F14D21B6BE5
S214007E80B3F5804F10D20A48FFF7B2FCB36A294612
S214007E901B6B2046DB6B984704460548FFF748FDFA
S214007EA0D0E740F20444CDE740F20114CAE700BF31
S214007EB03C350020BFF34F8F0549064BCA6802F4D5
S214007EC0E0621343CB60BFF34F8F00BFFDE700BFF8
S214007ED000ED00E00400FA0570B5D0B1C9B10E4E51
S214007EE0431E013913F8014F2046325D02F00302AB
S214007EF0012A11F8012F08BF04F12000B55C05F037
S214007F000305012D08BF2032801A01D1002CE9D1CB
S214007F1070BD0120FCE700BFE57504000348044A75
S214007F200449121A921028F0CBBD00BF344100005D
S214007F30D0420000E463002008B5154B83F30A889E
S214007F4000F030F8FFF7EAFF124B13498B4212D3CA
S214007F500020124B12498B4218D3FCF7C3FE186858
S214007F6050F82240586840F8224001329868824211
S214007F70F5D30C33EAE70022F8E71C6844F8220041
S214007F8001325C68A242F8D30833E4E70022F8E73F
S214007F9008000020849A0400909A0400909A040036
S214007FA0909A0400124B134A70B59A60D3F8882052
S214007FB0114D42F47002C3F888206FF0010205F5F7
S214007FC00054226641F2FF7262660222C3F8D02095
S214007FD0BFF34F8FBFF36F8F4FF44036032004F08C
S214007FE065F90320E66004F045F92E6170BD00BF18
S214007FF000ED00E00040000000800044014B1860E7
S214008000704700BFB8660020054B1860054B1B6F15
S21400801003F00703032B01D130F0A2BD704700BF69
S214008020C0660020008000502DE9F04104464FF065
S21400803001080C250D4E0CB9BDE8F08194FAA4F0A9
S214008040B0FA80F00F2808FA00F2C8BF103824EA09
S2140080500204CABF05FB006205FB0062B432576823
S214008060002FE8D09168C0B2B847E4E74C3500204E
S21400807008B50C4832F0BAFC192004F009F928B10A
S214008080192004F013F9192004F0F4F81A2004F06B
S214008090FFF828B11A2004F009F91A2004F0EAF8CB
S2140080A0002008BD745004002DE9F0410E46174626
S2140080B0054618B30F2923D80378DBB1013BDBB2A2
S2140080C0022B19D8104AD35C6A78D340DB0717D541
S2140080D00E4BD3F81043ACB932F0EAFB80463A4672
S2140080E02846314602F042FE404632F0DCFB20468F
S2140080F0BDE8F0817F23E7E70023E5E72224F6E7E3
S2140081002124F4E70224F2E7644E040000C0035082
S21400811010B5044610B30378E3B1013BDBB2022B83
S2140081201AD8104AD35C6278D340DB0718D532F0F1
S214008130BFFB0122617823788A4030214B4341F20D
S214008140100103F1A04303F570335A5032F0ABFB35
S214008150002010BD7F23E6E70023E4E72220F8E7AF
S2140081602120F6E7644E040010B5044610B30378E9
S214008170E3B1013BDBB2022B1AD8104AD35C62781B
S214008180D340DB0718D532F093FB012261782378C1
S2140081908A4030214B4342F2100103F1A04303F51D
S2140081A070335A5032F07FFB002010BD7F23E6E785
S2140081B00023E4E72220F8E72120F6E7644E0400D7
S2140081C038B50D46044618B311B30378E3B1013B46
S2140081D0DBB2022B1AD8104AD35C6278D340DB0796
S2140081E018D532F065FB30222378534303F1A043C1
S2140081F003F570335B696278D34003F001032B709C
S21400820032F051FB002038BD7F23E6E70023E4E789
S2140082102220F8E72120F6E7644E04002DE9F0411D
S2140082200D4616469846044600284FD000294DD0E5
S2140082300178002940D04B1EDBB2022B3ED8254ADF
S214008240D25C6378DA40D20701D4FF2940D1022EEF
S21400825001D9042E3CD132F02BFB23780746FF2BA6
S21400826005D032462046296802F0C6FD28602B68F5
S214008270013309D12378FF2B06D1174B6078D3F84A
S214008280241429F0F8F9286029684B1C18D00C2310
S214008290124A03FB0122069BC2F8048093602378EF
S2140082A0FF2B04D001230E4A8B40C2F824343846F4
S2140082B032F0F9FA002007E07F22C2E70022C0E78A
S2140082C0384632F0F0FA2D20BDE8F0812220FBE798
S2140082D02120F9E7644E040000C003504C3500200E
S2140082E000D0035008B502F037FD044B00F05530BF
S2140082F0C3F82004BDE80840FFF796BE00E0035030
S21400830008B502F029FD044B00F0AA30C3F820049B
S214008310BDE80840FFF788BE00E003502DE9F04FA7
S214008320144605460E469B46C36B87B001225B6922
S21400833002A960689847EB6B01225B6903A9304687
S214008340984702A828F0BBFF074648B10023A3754C
S21400835063754FF0FF33A360002007B0BDE8F08FD1
S21400836003A828F0B9FF0123A375237E04EBC303FB
S214008370DE611F846368B3420ED1206003A828F034
S214008380CDFF4FF0FF332075A360237D043B022B07
S21400839026D80023A375DFE723681A1A53425341F1
S2140083A0A37503A828F0BAFF237D834218BFA775DC
S2140083B003A828F095FF074602A828F091FF8742F9
S2140083C018BF002303A818BFA37528F091FF07461F
S2140083D002A828F08DFF87421CBF0023A375D4E7B0
S2140083E003A828F07DFF80B1EB6B022230465B6964
S2140083F004A9984704A828F082FF0346207D032896
S21400840039D8DFE800F03838040903A8F3E7CC22AF
S214008410237E04EBC3031A8401F06EFC109B1870D5
S21400842003A8277E28F050FF04EBC70787F8220032
S214008430237E03A804EBC303B3F8209093F82270BE
S21400844028F04EFF804603A828F052FF8246B8F177
S214008450000F15D0EB6B022230465B6904A99847E3
S21400846004A828F011FF6075637D6BB90023A3751F
S2140084704FF0000838E0227E04EBC2021384CBE7FC
S21400848003A828F0ECFEEEE794F81680B8F1000F8B
S214008490EED0B9F1000F09D1DFB10123E375637E99
S2140084A0002B4FD1012F42D1677614E06B6C06EBA0
S2140084B00A015A4286EA010010421CBF0022A27539
S2140084C05A1E0A409B1A9945D0D8A37D002BE3D1AB
S2140084D0CEE7E37D43B94FF000084B46524631469F
S2140084E0284628F037FCA060A27D12B123694B44D1
S2140084F023611A49237E097899422AD901332376C3
S214008500BBF1000F27D032B3E37D23B3B8F1000FE1
S21400851021D1032F1FD0A1684B1C1CD0109B2246D4
S214008520009328460123FFF7F9FEA07513E095F89F
S214008530343063B9EB6A0133CFD1032FCDD1012399
S214008540A376C8E7012FCFD0032FC4D1F7E798460C
S214008550C3E70023A375A07DFFE600BF884E040096
S2140085602DE9F04F0E46984600238BB004464FF098
S214008570FF31104617468DF8133001F0A7FBB6F50D
S214008580801F20D2314605AA04F1080028F0E9FD34
S214008590451C014603D1237CBBB92D2010E038468C
S2140085A001F094FB0122394620460DF1130328F012
S2140085B023FC0028EFD09DF8133088F80030002008
S2140085C00BB0BDE8F08FB01CE5D1E56A691C36D16A
S2140085D02046616A28F004FB0546B31C18BF012339
S2140085E0DFF8CC900193636A626C0293236805A956
S2140085F002FB053AE36B05225B695046984705A8DF
S21400860028F0F8FE28F01BFF504628F023FF4FF016
S214008610000B824601464B1C05D0636C81EA0A02B9
S2140086205B42134211D02946204628F0D9FA029B15
S214008630AB422CD0BBF1000F2CD10546D3E7236804
S214008640ED1A636CB5FBF3F5C7E7484601F03EFB51
S2140086500DF1130349462046019A28F0CDFB034648
S21400866090B1B21C03D0D9F80020B2420CD19DF8CC
S214008670132003930D4B88F8002049461A683846A5
S21400868013F05AFA039B9B46D9F80810C3E7BBF1D0
S214008690000F82D0B6F5801F91D2314698F8003090
S2140086A07A6804F1080001F03FFA88E7844E040077
S2140086B0283D00202DE9F3410446174698460E460D
S2140086C0184D816AE36A8B4201D04B1C02D102B07E
S2140086D0BDE8F081284601F0F9FA01222946204635
S2140086E00DF1070328F088FB38B14346294620469B
S2140086F09DF80720B8470028E9D0A9684A1C04D18D
S2140087006968204628F0F9FA0146012EDAD16B682E
S21400871081EA0302636C5B421A4218BF4FF0FF31D6
S214008720D0E700BFFC3C00202DE9F04F4FF0FF33B0
S2140087304FF6FF720025044600F10806C0E909233B
S2140087408BB0C362056205633046884628F0DAFCC3
S214008750204628F015FA60BB2046414628F090FADD
S214008760204628F00DFA60BB5E200BB0BDE8F08F07
S2140087702368E26B606C576900FB0530052205A98B
S214008780B84705A828F036FE012807460CD129462A
S214008790204628F046FA012F024600D1013229462B
S2140087A0204628F00CFA03E028F04EFE0028EED112
S2140087B00135E3699D42DBD3204628F0E1F9002825
S2140087C0CAD000254FF0FF394FF6FF73CA46A846B9
S2140087D0C4E90853E36998450AD3A5EB0905012DBA
S2140087E02CD84FF6FF72636A93423CD16720BCE7F1
S2140087F02368E26B606C576900FB0830052205A908
S214008800B84705A828F0F6FD834605A828F0C9FD58
S2140088100746584628F013FE68B1574538BFC4F8D7
S2140088202480B94528BFB946BD4238BF3D46BA4642
S214008830236A0133236208F10108CBE74FF6FF7382
S21400884000256362E3699D42CBD2676C2068E36BC8
S214008850052207FB05005B6905A9984705A828F0CF
S214008860A0FD0135EEE7E26B676C2068694607FB02
S214008870030055690522A847684628F092FD626AFB
S2140088802368606C4B4D00FB023028F0E3FD4FF090
S214008890FF33A062E3622A466FF00101204605AB73
S2140088A0FFF75EFE002846D1AD6829462046E56201
S2140088B028F042F9206320B92046E16A28F01DFA24
S2140088C0E0622946204628F018FA0546A36A9D422B
S2140088D033D1204628F003F900278046B946E369DD
S2140088E099453CD3B84559D92046616A28F078F9AD
S2140088F00026054604F1400AB74212D8626C236887
S214008900694602FB0539E36B05225B6948469847D2
S214008910684628F046FD534602464946E06B28F076
S2140089209BFD2946204628F05BF90136B0450546F2
S214008930E2D1642019E7A56AB7E72946204628F061
S214008940FBF8236B2946034407462363204628F09A
S214008950D4F90546002FB9D1C4E90B07B6E7636C16
S2140089602568052203FB0955E36B05A95B692846C4
S214008970984705A828F03EFD28F061FD58B1284626
S21400898028F068FD0146204628F0D6F8636C143BB4
S214008990984208BF013709F10109A0E7304628F0E0
S2140089A0B1FB002320461946034AFFF783FE00204A
S2140089B0DBE600BF543D0020E70D03002DE9F04143
S2140089C0036B9046826B07689A4288BF8363426C4B
S2140089D0436A90B002FB0377C36B0E46052201A9DB
S2140089E05B6904463846984701A828F003FD01282D
S2140089F00146307057D0656CE26B2368606AD2F827
S214008A0014C005FB0030052206A9E04706A828F09A
S214008A10F1FC01284FF0000523D0D4E90A320121E9
S214008A209342CDE90B458DF834800E958DF83C10B9
S214008A302AD11946204628F060F9236B626C14335D
S214008A409B1AE06223630C9B53B99DF83C303BB104
S214008A50626A616C2368E06B01FB023128F082FCDD
S214008A600C9DE36B05225B6901A93846984701A86F
S214008A7028F0C0FC30702846236BA26B9A4288BF51
S214008A80A36310B0BDE8F081237C33B91C490BAA60
S214008A9004F1080001F096F8D5E72046194A0BAB1A
S214008AA0FFF708FECFE7237C23BB2246164904F1D6
S214008AB0080001F087F8616A204628F0B2F8616A7B
S214008AC0421C204628F07BF8054620B9236B626CD2
S214008AD01344143B23632046A16A28F00EF923684A
S214008AE0A062C01A636CB0FBF3F06062204628F008
S214008AF047F9B6E700232046044AFFF7DBFDDAE72E
S214008B0061920000DD910000810E03001D0E03003F
S214008B1073B50D46D11E4A421C461B7E4A419A42F8
S214008B2026D129682368994222D3636899421FD8C0
S214008B30114E0DF107033246FFF712FDC0B97268F9
S214008B406B689A4214D19DF80730DA1E534253419F
S214008B50227E93420CD1636901336361D4E9032317
S214008B60934205D22968A26842F823100133236194
S214008B70012002B070BD00BF543D00202DE9F04F2B
S214008B809B4689B09DF848309046514A0193136938
S214008B9007465B450D46C0F09580D946536800935E
S214008BA0B9F1000F7BD0FB6B01225B6905A9009829
S214008BB0984705A828F090FB454B1B68984240F064
S214008BC0848005A828F094FB0428064615D105A83D
S214008BD028F095FB009B04461E44019B002B3ED1CB
S214008BE0804512D91C46A8EB00083846009928F0A4
S214008BF084F8A9EB04090090D2E7FB6B02225B69BC
S214008C00009806A9984706A8E2E7A0EB08045C458A
S214008C1028BF5C46032C4644ABEB040B1DD9FB6B0C
S214008C20294630465B69A208984724F0030304F0FF
S214008C30030A1E441D44DDF80480BAF1000FD4D0A8
S214008C40FB6B012206A930465B69984752462846C8
S214008C5006A912F071FF5544C7E7A246EBE7824625
S214008C6000F0030302932B1803930644039BA6EB22
S214008C700A00A3EB0A05029B9A4514D1BAF1000F2D
S214008C80B3D0FB6B012206A95B699847524628467B
S214008C9006A913F00DF90028DDD04FF03609484636
S214008CA009B0BDE8F08FFB6B012206A95B69984707
S214008CB00422284606A913F0FBF80028EDD1AAF1F5
S214008CC0040AD3E74FF06309E9E74FF06F09E6E7D8
S214008CD0803D00202DE9F0410F4616469846044692
S214008CE088B060B390F83450FDB1012127F03DFF05
S214008CF000210E9BCDE90511CDE902379DF83C30E9
S214008D00CDF804808DF81C30237C04968BB90D4971
S214008D1001AA04F1080000F055FFDDE90553E06BF9
S214008D20002E08BF1D4628F0B9F8284608B0BDE852
S214008D30F0812046044A01ABFFF7BCFCEDE7054690
S214008D40F3E700BF4B0E0300118B00007FB590F8D1
S214008D504260044601920DF10B030A463046114963
S214008D6028F0A4F8012E0546E36B17D132465B695E
S214008D7003A998479DF80B10039B019A59B19BB223
S214008D8043EA0243012228460393E36B03A99B6947
S214008D90984704B070BD62F30F03F3E701229B69A6
S214008DA001A9F5E7803D00202DE9F04F99B00E4669
S214008DB00D920A69416C0B931439D31DB3FBF1F382
S214008DC0013302EBC302036B04469342C0F00182F8
S214008DD00023DFF804940893E36A4846194605938F
S214008DE000F074FFD6E9033707930B9B022B4DD197
S214008DF0CC2F40F0D7810D9B3BB13146204628F062
S214008E00ABF8656C1490012044E00120079B656C6C
S214008E101B68149300F0010000280CBF04230823ED
S214008E20782F0E9349D8059A6B1E1340ED1A3B1DFA
S214008E309D423CD2002F3DD0082D3ED8002304256D
S214008E4006934FF0040A336806990B98C9F8003069
S214008E50C9F8107028F066FA4FEA9A030F93059B3C
S214008E6089F814000393002309930C9304930A9340
S214008E70616C039B4A1E1A408B1A27B35544AB42BB
S214008E8023D8236B5B1A134423632FE1782F656C7A
S214008E90B9D8F07D0D9B002BBCD0E36B01225B693B
S214008EA0706816A9984716A828F01AFAB4E700259D
S214008EB00695C6E704250697C3E7012300254FF06D
S214008EC0080A0693BFE75345DBD3A3EB0A02974293
S214008ED0039BB84628BF90469742534428D90122A0
S214008EE0D9F8101089F817208F4226D10399C9F8AF
S214008EF00410049299F817200AB399F818100398EA
S214008F00CA1C09EBC202506004980131A2F808801E
S214008F10907289F81810B8F1000F07D00B9A022A41
S214008F2040F08180099A72B1012209929B46ABE01B
S214008F30049A002A18BF0322DBE70222D9E7039A25
S214008F40C9F80420E7E70C9A4244032AEED9E26BFC
S214008F501846956914A901220993A847099B054656
S214008F600028E1D03D2D40F01E8104F10803039354
S214008F702368059A606CA2EB030ABAFBF0FA00FBC2
S214008F800A3028F067FAE16A8046204627F0B5FEE8
S214008F90A26A824200F00F81626CD9F80830511E36
S214008FA00B40216B2768891A0B442363089BE062F9
S214008FB0DF1BB7FBF2F7BA4540F0FA80059BB3EB30
S214008FC0080A12D0E36B4FEA9A0241469B6998471B
S214008FD08346E36A059A5344E362236B03989B1A1D
S214008FE04344236328F08EF8DA462368616CE06B0E
S214008FF001FB073128F0A3F9204627F0C1FD2046E3
S21400900027F0BEFE2063BAF1000F00F0D48032696C
S214009010616CD31D1439B3FBF1F3013302EBC302C9
S2140090209042A5D2BFE00D9A002A77D1B8F1030F7F
S2140090304FEA98026ED9E16B18468D69079910932E
S214009040A847109B0546C0B918F0030515D0079A27
S21400905028F0030B02EB0B019B444FF0FF3215A8E0
S21400906015922A46109312F067FDE26B58469569F2
S21400907015A90122A8470546109B9B46079A42441D
S2140090800792002D40F08B80049B16A80193069B48
S214009090009399F814204346316800F0CDFDE36B49
S2140090A00F9A9B69039816A99847039A051E089B72
S2140090B018BF13460893434652462046039927F0A6
S2140090C049FE236B08F10302A3EB0A0322F0030216
S2140090D09B1AC9F808002363002D7FF443AF0C9B4E
S2140090E0A7EB080743440C93CDF80CB02046039931
S2140090F027F003FE00250390002F7FF4B9AE364A12
S2140091003168936804F10800E36252680B9B00F034
S2140091100BFD49E09B46454607999EE79B4606F1B0
S21400912020021092F27D7068A2B1002296F818C054
S2140091300A99D5B2AC4511D9109D02F1010E35F849
S21400914032508D4228D90E9806EBC2020144D069EF
S214009150084403E00E9A0A990A441044E26B15A9E3
S214009160556901221193A847159A0A9B1392E26B40
S214009170043395695846012213A90A93A847119B00
S214009180054603EB0802A2EB0B02042A7FF679AF32
S21400919028B90BF1040BC5E77246491BC9E7CDF8A1
S2140091A020B088E770252F46384619B0BDE8F08F06
S2140091B04FF0000A19E73269616CD31D1439B3FB0E
S2140091C0F1F3013302EBC302236B9342BFF404AE08
S2140091D0E9E71C27E8E700BF283D0020032A2DE921
S2140091E0F34106460D4617461C4606D1237A012B48
S2140091F023D0012002B0BDE8F081DFF86080096866
S21400920042460DF10703FFF7ABF960600028EDD189
S2140092109DF80720237A032AE8D0D8F804106A6855
S2140092209142E3D1012B2969D4F80CC007D17269A9
S2140092300CEB0103934202D92074207CDAE7083154
S2140092406144E1603B46012229463046FFF7ACFD0B
S21400925060600028CAD00020CCE700BF543D002044
S2140092602DE9F341089C032A1746266806D1237A7F
S214009270012B24D0012002B0BDE8F081DFF89080F9
S214009280304642460DF10703FFF76AF96060002892
S214009290EDD12568D8F80400A96AD5F844C048403E
S2140092A0CCF100031840227AE1D1012A09D1E26804
S2140092B0D8F8103013447269934202D92074207C87
S2140092C0D9E72868EB6A1B1A081AB3FBFCF3B0FB55
S2140092D0FCF083420BD1706CF36A421E1340326B73
S2140092E0121A13442846336327F007FDE862D8F8BD
S2140092F01020E36808321344E36001223B46044929
S2140093002068FFF751FD60600028B0D00020B2E76B
S214009310543D00202DE9F0410025604B0E46D3F861
S214009320008004461D6018B921252846BDE8F08156
S21400933090F8347007B30A6803689A4240F0A38036
S2140093404A6843689A4240F09E808A6883689A42D8
S21400935040F09980CA68C3689A4240F094800A69CF
S21400936043699A4240F08F808A69C36B9A4240F004
S2140093708A804B698361D8E768223946856B12F08C
S2140093804BFAD6E90212336804F1080023607368CA
S214009390A5636360336963617369A36127F0C4FEE4
S2140093A0B36904F14000E3639B68984720B9676C93
S2140093B017B16368B3FBF7F794F84330E761002B07
S2140093C0B2D00023656C2366002D64D0002F62D0D7
S2140093D02368B3FBF5F205FB1233002B55D1666804
S2140093E0B6FBF5F305FB1363002B4ED1204627F0A2
S2140093F093FBA369043303449E4248D340F6347279
S2140094006369CC3B934244D8B5F5805F43D30321D0
S214009410204627F0AAFBD4E90001E36B1B689847B7
S2140094200546E36B0220DB689847CDB941462046E7
S214009430FFF77AF96428054604D141462046FFF72F
S21400944073F90546666C5DB9236A2046143E5E4392
S21400945027F062FBA369043303449E4238BF5A25B3
S214009460002D0CBF0123002384F8343007D1D4E943
S21400947000010B4A13680133136027F0EFFEE06B20
S21400948027F00CFD51E75D254FE759254DE75A2596
S2140094904BE75F2549E75B2547E700BFB836002066
S2140094A0B43600202DE9FF410C4616461F460546F9
S2140094B080B390F834307BB3B1F5801F2ED2DFF83E
S2140094C06080012127F051FB2146424628460DF1D7
S2140094D00F03FFF745F8044670B99DF80F30012BCF
S2140094E011D1D8F81030BB4212D102460090314656
S2140094F02846FFF743FB0446E86B27F0CFFC2046E0
S21400950004B0BDE8F081022B14BF2D246024F3E7DD
S2140095106324F1E72124F2E71124F0E72924EEE79B
S214009520803D00202DE9F04385B00C4617461E46C8
S2140095300546DDF8308098B390F8343093B3B1F533
S214009540801F31D2DFF86490012127F00EFB214600
S2140095504A4628460DF10F03FFF702F8044688B97D
S2140095609DF80F30012B14D1D9F8102006EB080314
S2140095709A4213D300904346324639462846FFF7B0
S214009580FDFA0446E86B27F089FC204605B0BDE8E6
S214009590F083022B14BF2D246024F3E76324F1E745
S2140095A02124F2E71124F0E72924EEE7803D00208D
S2140095B073B50C461646054630B390F834302BB3D8
S2140095C0B1F5801F24D2012127F0CFFA2146284684
S2140095D0104A0DF10703FEF7C3FF044680B99DF855
S2140095E00730032B0CD0022B0CD12846094927F054
S2140095F0B3FC3060E86B27F051FC204602B070BD2B
S2140096002D24F7E76124F5E72124F6E71124F4E793
S2140096102924F2E7803D00202DE9F3411E46002371
S2140096200C4617460546336050B390F834304BB3BB
S214009630B1F5801F28D2DFF85480012127F095FA73
S2140096402146424628460DF10703FEF789FF0446E9
S214009650A0B99DF80730032B10D0022B03BF0123BF
S2140096603B600423D8F8103018BF38603360E86BCE
S21400967027F014FC204602B0BDE8F0812D24F6E762
S2140096802124F7E71124F5E72924F3E7803D00209D
S21400969073B50446056B27F03FFA636E03449D429C
S2140096A02CBF00230123854294BF00252D1A207C61
S2140096B084F85030656584F85800A8B100230C4E35
S2140096C01A4619462046009627F00AFD002305464E
S2140096D01A4619462046009627F00BFDE3682844F4
S2140096E0984294BF0020C01AE06502B070BD00BF6B
S2140096F0FFFF0F002DE9F3471E4643690446B342B9
S214009700884617469DF828904ED300258DF80750BA
S214009710204627F001FAD4F830A082450AD2236A00
S214009720B5EB430F06D2002220460DF10701FFF7E6
S21400973045F9B8B39DF80730012B05D10022204625
S2140097400DF10701FFF73AF9B9F1030F06D03146DC
S214009750204627F0D1F9256B854227D3144D4FF0CC
S214009760FF31284600F0B2FA4B4629460022204632
S214009770C5E90376C5F80080FFF716FB236E05469D
S21400978063B12046FFF784FF94F8503013B994F87D
S21400979058301BB1236E04F150009847284602B09B
S2140097A0BDE8F0870135B3E76225F7E71C25F5E746
S2140097B0543D00202DE9FF410F4690461E460546C3
S2140097C098B390F8343093B3B1F5801F31D21A4C69
S2140097D0022127F0CAF92246394628460DF10F0322
S2140097E0FEF7BEFE024678B1012342460093394694
S2140097F033462846FFF77EFF0446E86B27F04EFB0D
S214009800204604B0BDE8F0819DF80F30012BEBD167
S2140098102169B142E8D10093414633462846FFF716
S214009820ADF904460028DFD1E7E72124E8E7112454
S214009830E6E72924E4E700BF803D00202DE9F04755
S21400984090F8423086B0012B05460391A1EB020743
S21400985040F0AA80FF2F03D81E464FF0640807E0AA
S2140098600226012B14BF4FF032084FF06408013671
S21400987000244FF6FF79DFF844A195F84230012B1B
S21400988014BF322364239C4202D35FFA88F40DE0AF
S21400989005AB22465146284627F03CFB95F8423059
S2140098A0012B059B34D14B452DD1E4B295F84230BF
S2140098B0012B14BF32226422121BB24217D3012E90
